{
  "contractName": "Phototrade",
  "abi": [
    {
      "constant": true,
      "inputs": [
        {
          "name": "",
          "type": "uint256"
        }
      ],
      "name": "items",
      "outputs": [
        {
          "name": "id",
          "type": "uint256"
        },
        {
          "name": "seller",
          "type": "address"
        },
        {
          "name": "curBuyer",
          "type": "address"
        },
        {
          "name": "title",
          "type": "string"
        },
        {
          "name": "description",
          "type": "string"
        },
        {
          "name": "imghash",
          "type": "string"
        },
        {
          "name": "price",
          "type": "uint256"
        },
        {
          "name": "numbuyers",
          "type": "uint256"
        },
        {
          "name": "timeCreate",
          "type": "uint256"
        }
      ],
      "payable": false,
      "stateMutability": "view",
      "type": "function"
    },
    {
      "anonymous": false,
      "inputs": [
        {
          "indexed": true,
          "name": "_id",
          "type": "uint256"
        },
        {
          "indexed": true,
          "name": "_seller",
          "type": "address"
        },
        {
          "indexed": false,
          "name": "_title",
          "type": "string"
        },
        {
          "indexed": false,
          "name": "_price",
          "type": "uint256"
        },
        {
          "indexed": false,
          "name": "_numbuyers",
          "type": "uint256"
        }
      ],
      "name": "sellItemLog",
      "type": "event"
    },
    {
      "anonymous": false,
      "inputs": [
        {
          "indexed": true,
          "name": "_id",
          "type": "uint256"
        },
        {
          "indexed": true,
          "name": "_seller",
          "type": "address"
        },
        {
          "indexed": true,
          "name": "_buyer",
          "type": "address"
        },
        {
          "indexed": false,
          "name": "_title",
          "type": "string"
        },
        {
          "indexed": false,
          "name": "_price",
          "type": "uint256"
        },
        {
          "indexed": false,
          "name": "_numbuyers",
          "type": "uint256"
        },
        {
          "indexed": false,
          "name": "_status",
          "type": "bool"
        }
      ],
      "name": "buyItemLog",
      "type": "event"
    },
    {
      "anonymous": false,
      "inputs": [
        {
          "indexed": true,
          "name": "_id",
          "type": "uint256"
        },
        {
          "indexed": true,
          "name": "_curBuyer",
          "type": "address"
        },
        {
          "indexed": false,
          "name": "_price",
          "type": "uint256"
        }
      ],
      "name": "proposeItemLog",
      "type": "event"
    },
    {
      "constant": false,
      "inputs": [
        {
          "name": "index",
          "type": "uint256"
        }
      ],
      "name": "getItemsIndex",
      "outputs": [
        {
          "name": "id",
          "type": "uint256"
        },
        {
          "name": "seller",
          "type": "address"
        },
        {
          "name": "price",
          "type": "uint256"
        },
        {
          "name": "numbuyers",
          "type": "uint256"
        }
      ],
      "payable": false,
      "stateMutability": "nonpayable",
      "type": "function"
    },
    {
      "constant": false,
      "inputs": [
        {
          "name": "_title",
          "type": "string"
        },
        {
          "name": "_description",
          "type": "string"
        },
        {
          "name": "_imghash",
          "type": "string"
        },
        {
          "name": "_price",
          "type": "uint256"
        }
      ],
      "name": "sellItem",
      "outputs": [],
      "payable": false,
      "stateMutability": "nonpayable",
      "type": "function"
    },
    {
      "constant": false,
      "inputs": [
        {
          "name": "_id",
          "type": "uint256"
        },
        {
          "name": "_proPrice",
          "type": "uint256"
        }
      ],
      "name": "proposePrice",
      "outputs": [],
      "payable": true,
      "stateMutability": "payable",
      "type": "function"
    },
    {
      "constant": false,
      "inputs": [
        {
          "name": "_id",
          "type": "uint256"
        }
      ],
      "name": "buyItem",
      "outputs": [],
      "payable": true,
      "stateMutability": "payable",
      "type": "function"
    },
    {
      "constant": true,
      "inputs": [],
      "name": "getNumberOfItems",
      "outputs": [
        {
          "name": "",
          "type": "uint256"
        }
      ],
      "payable": false,
      "stateMutability": "view",
      "type": "function"
    },
    {
      "constant": true,
      "inputs": [
        {
          "name": "_id",
          "type": "uint256"
        }
      ],
      "name": "getNumberOfBuyers",
      "outputs": [
        {
          "name": "id",
          "type": "uint256"
        }
      ],
      "payable": false,
      "stateMutability": "view",
      "type": "function"
    }
  ],
  "bytecode": "0x6080604052336000806101000a81548173ffffffffffffffffffffffffffffffffffffffff021916908373ffffffffffffffffffffffffffffffffffffffff160217905550610e55806100536000396000f300608060405260043610610083576000357c0100000000000000000000000000000000000000000000000000000000900463ffffffff16806327af480c14610088578063730ef269146100c9578063bfb231d2146100f4578063df29ed7a146102f4578063e161926914610376578063e7fb74c7146103a0578063eaf05504146103c0575b600080fd5b34801561009457600080fd5b506100b3600480360381019080803590602001909291905050506104bf565b6040518082815260200191505060405180910390f35b3480156100d557600080fd5b506100de6104df565b6040518082815260200191505060405180910390f35b34801561010057600080fd5b5061011f600480360381019080803590602001909291905050506104e9565b604051808a81526020018973ffffffffffffffffffffffffffffffffffffffff1673ffffffffffffffffffffffffffffffffffffffff1681526020018873ffffffffffffffffffffffffffffffffffffffff1673ffffffffffffffffffffffffffffffffffffffff16815260200180602001806020018060200187815260200186815260200185815260200184810384528a818151815260200191508051906020019080838360005b838110156101e35780820151818401526020810190506101c8565b50505050905090810190601f1680156102105780820380516001836020036101000a031916815260200191505b50848103835289818151815260200191508051906020019080838360005b8381101561024957808201518184015260208101905061022e565b50505050905090810190601f1680156102765780820380516001836020036101000a031916815260200191505b50848103825288818151815260200191508051906020019080838360005b838110156102af578082015181840152602081019050610294565b50505050905090810190601f1680156102dc5780820380516001836020036101000a031916815260200191505b509c5050505050505050505050505060405180910390f35b34801561030057600080fd5b5061031f6004803603810190808035906020019092919050505061073f565b604051808581526020018473ffffffffffffffffffffffffffffffffffffffff1673ffffffffffffffffffffffffffffffffffffffff16815260200183815260200182815260200194505050505060405180910390f35b61039e60048036038101908080359060200190929190803590602001909291905050506107a0565b005b6103be600480360381019080803590602001909291905050506108af565b005b3480156103cc57600080fd5b506104bd600480360381019080803590602001908201803590602001908080601f0160208091040260200160405190810160405280939291908181526020018383808284378201915050505050509192919290803590602001908201803590602001908080601f0160208091040260200160405190810160405280939291908181526020018383808284378201915050505050509192919290803590602001908201803590602001908080601f016020809104026020016040519081016040528093929190818152602001838380828437820191505050505050919291929080359060200190929190505050610b50565b005b600060016000838152602001908152602001600020600801549050919050565b6000600254905090565b60016020528060005260406000206000915090508060000154908060010160009054906101000a900473ffffffffffffffffffffffffffffffffffffffff16908060020160009054906101000a900473ffffffffffffffffffffffffffffffffffffffff1690806004018054600181600116156101000203166002900480601f0160208091040260200160405190810160405280929190818152602001828054600181600116156101000203166002900480156105e75780601f106105bc576101008083540402835291602001916105e7565b820191906000526020600020905b8154815290600101906020018083116105ca57829003601f168201915b505050505090806005018054600181600116156101000203166002900480601f0160208091040260200160405190810160405280929190818152602001828054600181600116156101000203166002900480156106855780601f1061065a57610100808354040283529160200191610685565b820191906000526020600020905b81548152906001019060200180831161066857829003601f168201915b505050505090806006018054600181600116156101000203166002900480601f0160208091040260200160405190810160405280929190818152602001828054600181600116156101000203166002900480156107235780601f106106f857610100808354040283529160200191610723565b820191906000526020600020905b81548152906001019060200180831161070657829003601f168201915b5050505050908060070154908060080154908060090154905089565b600080600080600060016000878152602001908152602001600020905080600001548160010160009054906101000a900473ffffffffffffffffffffffffffffffffffffffff16826007015483600801549450945094509450509193509193565b806001600084815260200190815260200160002060070181905550336001600084815260200190815260200160002060020160006101000a81548173ffffffffffffffffffffffffffffffffffffffff021916908373ffffffffffffffffffffffffffffffffffffffff1602179055506001600083815260200190815260200160002060020160009054906101000a900473ffffffffffffffffffffffffffffffffffffffff1673ffffffffffffffffffffffffffffffffffffffff16827f459159439c18495b0cdf5d71b9288f8127041606b1dc4c717dfcfc2107872aee60016000868152602001908152602001600020600701546040518082815260200191505060405180910390a35050565b600060016000838152602001908152602001600020905060018160030160003373ffffffffffffffffffffffffffffffffffffffff1673ffffffffffffffffffffffffffffffffffffffff16815260200190815260200160002060006101000a81548160ff0219169083151502179055508060010160009054906101000a900473ffffffffffffffffffffffffffffffffffffffff1673ffffffffffffffffffffffffffffffffffffffff166108fc82600701549081150290604051600060405180830381858888f1935050505015801561098e573d6000803e3d6000fd5b5080600801600081548092919060010191905055508060020160009054906101000a900473ffffffffffffffffffffffffffffffffffffffff1673ffffffffffffffffffffffffffffffffffffffff168160010160009054906101000a900473ffffffffffffffffffffffffffffffffffffffff1673ffffffffffffffffffffffffffffffffffffffff1682600001547fc63f16e6a5e9ea76b17ea8e18a92f6179523588cd106b7b1ad8d7fc34b983b3884600401856007015486600801548760030160003373ffffffffffffffffffffffffffffffffffffffff1673ffffffffffffffffffffffffffffffffffffffff16815260200190815260200160002060009054906101000a900460ff16604051808060200185815260200184815260200183151515158152602001828103825286818154600181600116156101000203166002900481526020019150805460018160011615610100020316600290048015610b3b5780601f10610b1057610100808354040283529160200191610b3b565b820191906000526020600020905b815481529060010190602001808311610b1e57829003601f168201915b50509550505050505060405180910390a45050565b600260008154809291906001019190505550600254600160006002548152602001908152602001600020600001819055503360016000600254815260200190815260200160002060010160006101000a81548173ffffffffffffffffffffffffffffffffffffffff021916908373ffffffffffffffffffffffffffffffffffffffff160217905550836001600060025481526020019081526020016000206004019080519060200190610c04929190610d84565b50826001600060025481526020019081526020016000206005019080519060200190610c31929190610d84565b50816001600060025481526020019081526020016000206006019080519060200190610c5e929190610d84565b50806001600060025481526020019081526020016000206007018190555042600160006002548152602001908152602001600020600901819055506000600160006002548152602001908152602001600020600801819055503373ffffffffffffffffffffffffffffffffffffffff166002547f8d42b08c330d852ee0a94564e3cffcd6e1923c7172c7bdedf72aabce65db3cf8868460006040518080602001848152602001838152602001828103825285818151815260200191508051906020019080838360005b83811015610d42578082015181840152602081019050610d27565b50505050905090810190601f168015610d6f5780820380516001836020036101000a031916815260200191505b5094505050505060405180910390a350505050565b828054600181600116156101000203166002900490600052602060002090601f016020900481019282601f10610dc557805160ff1916838001178555610df3565b82800160010185558215610df3579182015b82811115610df2578251825591602001919060010190610dd7565b5b509050610e009190610e04565b5090565b610e2691905b80821115610e22576000816000905550600101610e0a565b5090565b905600a165627a7a7230582056e9f0bc18b88dc44e618a27fd0d572f385c29990feaf7a14066c8f20272fbbd0029",
  "source": "pragma solidity ^0.4.18;\n\nimport \"./Ownable.sol\";\n\ncontract Phototrade is Ownable {\n\n  struct Item{\n    uint id;\n    address seller;\n    address curBuyer;\n    mapping (address => bool) buyers;\n    string title;\n    string description;\n    string imghash;\n    uint256 price;\n    uint numbuyers;\n    uint timeCreate;\n  }\n\n  mapping (uint => Item) public items;\n  uint itemCounter;\n\n  function getItemsIndex(uint index) returns (uint id, address seller, uint price, uint numbuyers) {\n    Item local = items[index];\n    return (local.id, local.seller, local.price, local.numbuyers);\n  }\n\n  // events\n  event sellItemLog(\n    uint indexed _id,\n    address indexed _seller,\n    string _title,\n    uint256 _price,\n    uint _numbuyers\n  );\n\n  event buyItemLog(\n    uint indexed _id,\n    address indexed _seller,\n    address indexed _buyer,\n    string _title,\n    uint256 _price,\n    uint _numbuyers,\n    bool _status\n  );\n\n  event proposeItemLog(\n    uint indexed _id,\n    address indexed _curBuyer,\n    uint256 _price\n  );\n\n\n  function sellItem(string _title, string _description, string _imghash, uint256 _price) public{\n\n    itemCounter++;\n\n    items[itemCounter].id = itemCounter;\n    items[itemCounter].seller = msg.sender;\n    items[itemCounter].title = _title;\n    items[itemCounter].description = _description;\n    items[itemCounter].imghash = _imghash;\n    items[itemCounter].price = _price;\n    items[itemCounter].timeCreate = block.timestamp;\n    items[itemCounter].numbuyers = 0;\n    sellItemLog(itemCounter, msg.sender, _title, _price, 0);\n  }\n\n\n  function proposePrice(uint _id, uint _proPrice) payable public{\n\n    items[_id].price = _proPrice;\n    items[_id].curBuyer = msg.sender;\n    proposeItemLog(_id, items[_id].curBuyer, items[_id].price);\n  }\n\n\n  function buyItem(uint _id) payable public{\n    Item storage item = items[_id];\n    item.buyers[msg.sender] = true;\n\n    item.seller.transfer(item.price);\n\n    item.numbuyers++;\n    buyItemLog(item.id, item.seller, item.curBuyer, item.title, item.price, item.numbuyers, item.buyers[msg.sender]);\n  }\n\n  function getNumberOfItems() public view returns(uint){\n    return itemCounter;\n  }\n/*\n  function getItemsforSale() public constant returns(uint id){\n\n    uint[] memory forSale = new uint[](itemCounter+1);\n    for(uint j = 1; j<=itemCounter; j++){\n      forSale[j] = items[j];\n    }\n\n    return forSale;\n  }\n*/\n  function getNumberOfBuyers(uint _id) public constant returns(uint id){\n    return items[_id].numbuyers;\n  }\n\n}\n",
  "sourcePath": "/Users/silverzhang/ChainSkills/Training/photoworldfront/src/contracts/Phototrade.sol",
  "compiler": {
    "name": "solc",
    "version": "0.4.24+commit.e67f0147.Emscripten.clang"
  },
  "schemaVersion": "2.0.1",
  "updatedAt": "2018-10-21T19:13:13.252Z"
}