{
  "contractName": "Phototrade",
  "abi": [
    {
      "constant": true,
      "inputs": [
        {
          "name": "",
          "type": "uint256"
        }
      ],
      "name": "items",
      "outputs": [
        {
          "name": "id",
          "type": "uint256"
        },
        {
          "name": "seller",
          "type": "address"
        },
        {
          "name": "title",
          "type": "string"
        },
        {
          "name": "description",
          "type": "string"
        },
        {
          "name": "imghash",
          "type": "string"
        },
        {
          "name": "price",
          "type": "uint256"
        },
        {
          "name": "numbuyers",
          "type": "uint256"
        }
      ],
      "payable": false,
      "stateMutability": "view",
      "type": "function"
    },
    {
      "anonymous": false,
      "inputs": [
        {
          "indexed": true,
          "name": "_id",
          "type": "uint256"
        },
        {
          "indexed": true,
          "name": "_seller",
          "type": "address"
        },
        {
          "indexed": false,
          "name": "_title",
          "type": "string"
        },
        {
          "indexed": false,
          "name": "_price",
          "type": "uint256"
        },
        {
          "indexed": false,
          "name": "_numbuyers",
          "type": "uint256"
        }
      ],
      "name": "sellItemLog",
      "type": "event"
    },
    {
      "anonymous": false,
      "inputs": [
        {
          "indexed": true,
          "name": "_id",
          "type": "uint256"
        },
        {
          "indexed": true,
          "name": "_seller",
          "type": "address"
        },
        {
          "indexed": true,
          "name": "_buyer",
          "type": "address"
        },
        {
          "indexed": false,
          "name": "_title",
          "type": "string"
        },
        {
          "indexed": false,
          "name": "_price",
          "type": "uint256"
        },
        {
          "indexed": false,
          "name": "_numbuyers",
          "type": "uint256"
        },
        {
          "indexed": false,
          "name": "_status",
          "type": "bool"
        }
      ],
      "name": "buyItemLog",
      "type": "event"
    },
    {
      "constant": false,
      "inputs": [
        {
          "name": "index",
          "type": "uint256"
        }
      ],
      "name": "getItemsIndex",
      "outputs": [
        {
          "name": "id",
          "type": "uint256"
        },
        {
          "name": "seller",
          "type": "address"
        },
        {
          "name": "price",
          "type": "uint256"
        },
        {
          "name": "numbuyers",
          "type": "uint256"
        }
      ],
      "payable": false,
      "stateMutability": "nonpayable",
      "type": "function"
    },
    {
      "constant": false,
      "inputs": [
        {
          "name": "_title",
          "type": "string"
        },
        {
          "name": "_description",
          "type": "string"
        },
        {
          "name": "_imghash",
          "type": "string"
        },
        {
          "name": "_price",
          "type": "uint256"
        }
      ],
      "name": "sellItem",
      "outputs": [],
      "payable": false,
      "stateMutability": "nonpayable",
      "type": "function"
    },
    {
      "constant": false,
      "inputs": [
        {
          "name": "_id",
          "type": "uint256"
        }
      ],
      "name": "buyItem",
      "outputs": [],
      "payable": true,
      "stateMutability": "payable",
      "type": "function"
    },
    {
      "constant": true,
      "inputs": [],
      "name": "getNumberOfItems",
      "outputs": [
        {
          "name": "",
          "type": "uint256"
        }
      ],
      "payable": false,
      "stateMutability": "view",
      "type": "function"
    },
    {
      "constant": true,
      "inputs": [
        {
          "name": "_id",
          "type": "uint256"
        }
      ],
      "name": "getNumberOfBuyers",
      "outputs": [
        {
          "name": "id",
          "type": "uint256"
        }
      ],
      "payable": false,
      "stateMutability": "view",
      "type": "function"
    }
  ],
  "bytecode": "0x6080604052336000806101000a81548173ffffffffffffffffffffffffffffffffffffffff021916908373ffffffffffffffffffffffffffffffffffffffff160217905550610daf806100536000396000f300608060405260043610610078576000357c0100000000000000000000000000000000000000000000000000000000900463ffffffff16806327af480c1461007d578063730ef269146100be578063bfb231d2146100e9578063df29ed7a146102af578063e7fb74c714610331578063eaf0550414610351575b600080fd5b34801561008957600080fd5b506100a860048036038101908080359060200190929190505050610450565b6040518082815260200191505060405180910390f35b3480156100ca57600080fd5b506100d3610470565b6040518082815260200191505060405180910390f35b3480156100f557600080fd5b506101146004803603810190808035906020019092919050505061047a565b604051808881526020018773ffffffffffffffffffffffffffffffffffffffff1673ffffffffffffffffffffffffffffffffffffffff168152602001806020018060200180602001868152602001858152602001848103845289818151815260200191508051906020019080838360005b838110156101a0578082015181840152602081019050610185565b50505050905090810190601f1680156101cd5780820380516001836020036101000a031916815260200191505b50848103835288818151815260200191508051906020019080838360005b838110156102065780820151818401526020810190506101eb565b50505050905090810190601f1680156102335780820380516001836020036101000a031916815260200191505b50848103825287818151815260200191508051906020019080838360005b8381101561026c578082015181840152602081019050610251565b50505050905090810190601f1680156102995780820380516001836020036101000a031916815260200191505b509a505050505050505050505060405180910390f35b3480156102bb57600080fd5b506102da600480360381019080803590602001909291905050506106a4565b604051808581526020018473ffffffffffffffffffffffffffffffffffffffff1673ffffffffffffffffffffffffffffffffffffffff16815260200183815260200182815260200194505050505060405180910390f35b61034f60048036038101908080359060200190929190505050610705565b005b34801561035d57600080fd5b5061044e600480360381019080803590602001908201803590602001908080601f0160208091040260200160405190810160405280939291908181526020018383808284378201915050505050509192919290803590602001908201803590602001908080601f0160208091040260200160405190810160405280939291908181526020018383808284378201915050505050509192919290803590602001908201803590602001908080601f016020809104026020016040519081016040528093929190818152602001838380828437820191505050505050919291929080359060200190929190505050610ac7565b005b600060016000838152602001908152602001600020600701549050919050565b6000600254905090565b60016020528060005260406000206000915090508060000154908060010160009054906101000a900473ffffffffffffffffffffffffffffffffffffffff1690806003018054600181600116156101000203166002900480601f0160208091040260200160405190810160405280929190818152602001828054600181600116156101000203166002900480156105525780601f1061052757610100808354040283529160200191610552565b820191906000526020600020905b81548152906001019060200180831161053557829003601f168201915b505050505090806004018054600181600116156101000203166002900480601f0160208091040260200160405190810160405280929190818152602001828054600181600116156101000203166002900480156105f05780601f106105c5576101008083540402835291602001916105f0565b820191906000526020600020905b8154815290600101906020018083116105d357829003601f168201915b505050505090806005018054600181600116156101000203166002900480601f01602080910402602001604051908101604052809291908181526020018280546001816001161561010002031660029004801561068e5780601f106106635761010080835404028352916020019161068e565b820191906000526020600020905b81548152906001019060200180831161067157829003601f168201915b5050505050908060060154908060070154905087565b600080600080600060016000878152602001908152602001600020905080600001548160010160009054906101000a900473ffffffffffffffffffffffffffffffffffffffff16826006015483600701549450945094509450509193509193565b60008060025411151561071757600080fd5b60008211801561072957506002548211155b151561073457600080fd5b60016000838152602001908152602001600020905060008160010160009054906101000a900473ffffffffffffffffffffffffffffffffffffffff1673ffffffffffffffffffffffffffffffffffffffff161415151561079357600080fd5b8060010160009054906101000a900473ffffffffffffffffffffffffffffffffffffffff1673ffffffffffffffffffffffffffffffffffffffff163373ffffffffffffffffffffffffffffffffffffffff16141515156107f257600080fd5b600015158160020160003373ffffffffffffffffffffffffffffffffffffffff1673ffffffffffffffffffffffffffffffffffffffff16815260200190815260200160002060009054906101000a900460ff16151514151561085357600080fd5b80600601543414151561086557600080fd5b60018160020160003373ffffffffffffffffffffffffffffffffffffffff1673ffffffffffffffffffffffffffffffffffffffff16815260200190815260200160002060006101000a81548160ff0219169083151502179055508060010160009054906101000a900473ffffffffffffffffffffffffffffffffffffffff1673ffffffffffffffffffffffffffffffffffffffff166108fc349081150290604051600060405180830381858888f19350505050158015610929573d6000803e3d6000fd5b5080600701600081548092919060010191905055503373ffffffffffffffffffffffffffffffffffffffff168160010160009054906101000a900473ffffffffffffffffffffffffffffffffffffffff1673ffffffffffffffffffffffffffffffffffffffff1682600001547fc63f16e6a5e9ea76b17ea8e18a92f6179523588cd106b7b1ad8d7fc34b983b3884600301856006015486600701548760020160003373ffffffffffffffffffffffffffffffffffffffff1673ffffffffffffffffffffffffffffffffffffffff16815260200190815260200160002060009054906101000a900460ff16604051808060200185815260200184815260200183151515158152602001828103825286818154600181600116156101000203166002900481526020019150805460018160011615610100020316600290048015610ab25780601f10610a8757610100808354040283529160200191610ab2565b820191906000526020600020905b815481529060010190602001808311610a9557829003601f168201915b50509550505050505060405180910390a45050565b600260008154809291906001019190505550600254600160006002548152602001908152602001600020600001819055503360016000600254815260200190815260200160002060010160006101000a81548173ffffffffffffffffffffffffffffffffffffffff021916908373ffffffffffffffffffffffffffffffffffffffff160217905550836001600060025481526020019081526020016000206003019080519060200190610b7b929190610cde565b50826001600060025481526020019081526020016000206004019080519060200190610ba8929190610cde565b50816001600060025481526020019081526020016000206005019080519060200190610bd5929190610cde565b5080600160006002548152602001908152602001600020600601819055506000600160006002548152602001908152602001600020600701819055503373ffffffffffffffffffffffffffffffffffffffff166002547f8d42b08c330d852ee0a94564e3cffcd6e1923c7172c7bdedf72aabce65db3cf8868460006040518080602001848152602001838152602001828103825285818151815260200191508051906020019080838360005b83811015610c9c578082015181840152602081019050610c81565b50505050905090810190601f168015610cc95780820380516001836020036101000a031916815260200191505b5094505050505060405180910390a350505050565b828054600181600116156101000203166002900490600052602060002090601f016020900481019282601f10610d1f57805160ff1916838001178555610d4d565b82800160010185558215610d4d579182015b82811115610d4c578251825591602001919060010190610d31565b5b509050610d5a9190610d5e565b5090565b610d8091905b80821115610d7c576000816000905550600101610d64565b5090565b905600a165627a7a72305820c90697ca4ab1605c47c07e935d3a8133b6f99f067960e57c5216feb043da970e0029",
  "source": "pragma solidity ^0.4.18;\n\nimport \"./Ownable.sol\";\n\ncontract Phototrade is Ownable {\n\n  struct Item{\n    uint id;\n    address seller;\n    mapping (address => bool) buyers;\n    string title;\n    string description;\n    string imghash;\n    uint256 price;\n    uint numbuyers;\n  }\n\n  mapping (uint => Item) public items;\n  uint itemCounter;\n\n  function getItemsIndex(uint index) returns (uint id, address seller, uint price, uint numbuyers) {\n    Item local = items[index];\n    return (local.id, local.seller, local.price, local.numbuyers);\n  }\n\n  // events\n  event sellItemLog(\n    uint indexed _id,\n    address indexed _seller,\n    string _title,\n    uint256 _price,\n    uint _numbuyers\n  );\n\n  event buyItemLog(\n    uint indexed _id,\n    address indexed _seller,\n    address indexed _buyer,\n    string _title,\n    uint256 _price,\n    uint _numbuyers,\n    bool _status\n  );\n\n\n  function sellItem(string _title, string _description, string _imghash, uint256 _price) public{\n\n    itemCounter++;\n\n    items[itemCounter].id = itemCounter;\n    items[itemCounter].seller = msg.sender;\n    items[itemCounter].title = _title;\n    items[itemCounter].description = _description;\n    items[itemCounter].imghash = _imghash;\n    items[itemCounter].price = _price;\n    items[itemCounter].numbuyers = 0;\n    sellItemLog(itemCounter, msg.sender, _title, _price, 0);\n  }\n\n\n  function buyItem(uint _id) payable public{\n    require(itemCounter>0);\n    require(_id > 0 && _id <= itemCounter);\n\n    Item storage item = items[_id];\n    require(item.seller != 0x0);\n\n    require(msg.sender != item.seller);\n    require(item.buyers[msg.sender] == false);\n    require(msg.value == item.price);\n\n    item.buyers[msg.sender] = true;\n\n    item.seller.transfer(msg.value);\n\n    item.numbuyers++;\n    buyItemLog(item.id, item.seller, msg.sender, item.title, item.price, item.numbuyers, item.buyers[msg.sender]);\n  }\n\n  function getNumberOfItems() public view returns(uint){\n    return itemCounter;\n  }\n/*\n  function getItemsforSale() public constant returns(uint id){\n\n    uint[] memory forSale = new uint[](itemCounter+1);\n    for(uint j = 1; j<=itemCounter; j++){\n      forSale[j] = items[j];\n    }\n\n    return forSale;\n  }\n*/\n  function getNumberOfBuyers(uint _id) public constant returns(uint id){\n    return items[_id].numbuyers;\n  }\n\n}\n",
  "sourcePath": "/Users/silverzhang/ChainSkills/Training/photoworldfront/src/contracts/Phototrade.sol",
  "compiler": {
    "name": "solc",
    "version": "0.4.24+commit.e67f0147.Emscripten.clang"
  },
  "schemaVersion": "2.0.1",
  "updatedAt": "2018-07-29T22:21:04.147Z"
}